:100000000C946D000C9495000C9495000C94950044
:100010000C9495000C9495000C9495000C9495000C
:100020000C9495000C9495000C9495000C949500FC
:100030000C9495000C9495000C9495000C949500EC
:100040000C94EB040C9495000C94B9040C94930458
:100050000C9495000C9495000C9495000C949500CC
:100060000C9495000C9495000000000025002800D9
:100070002B0000000000240027002A0000000000E0
:1000800023002600290004040404040404040202DA
:100090000202020203030303030301020408102007
:1000A0004080010204081020010204081020000012
:1000B0000008000201000003040700000000000027
:1000C00000000D0A53656E74205061636B657420E7
:1000D000446174610D0A0000350511241FBECFEF85
:1000E000D8E0DEBFCDBF27E0ACECB1E001C01D928F
:1000F000A339B207E1F711E0A0E0B1E0E8E9F1E2ED
:1001000002C005900D92AC3CB107D9F710E0CDE6E6
:10011000D0E004C02197FE010E94A110CC36D10787
:10012000C9F70E946D050C94CA100C940000A82F0A
:10013000B92F459A55274AE04A9905C05A95E1F7E3
:100140004A95D1F745C061E04F9B01C0FCCF8AE0E2
:100150008A95F1F798E04F9901C007C060FD0EC085
:1001600061E00894000000000EC060FD04C060E083
:100170008894000008C060E0089405C061E088949D
:10018000000000000000771F9A9539F08FE08A95F3
:10019000F1F7000000000000DECF7D9394E66130AF
:1001A00029F04F9908C09A9551F0FBCF4F9B03C09F
:1001B0009A9529F0FBCF87E08A95F1F7CBCF772787
:1001C0007D9345984A9B01C0FDCF992788270895C4
:1001D000459881E099270895A82FB92F459A4A9903
:1001E00001C0FDCF7D91703031F198E077FF13C0F1
:1001F0005E9A84E08A95F1F7000000005E989A9577
:1002000029F0771F8DE08A95F1F7F0CF8BE08A9582
:10021000F1F70000E7CF9A9539F0771F82E18A95D0
:10022000F1F700000000E2CF80E18A95F1F70000CD
:1002300000000000D7CF459885E04A9B03C08A950F
:10024000D9F703C0992788270895992781E0089551
:10025000AF92BF92CF92DF92EF92FF920F931F93D4
:10026000CF93DF936C017B018B01040F151FEB0112
:100270005E01AE18BF08C017D10759F06991D601C9
:10028000ED91FC910190F081E02DC6010995892B3B
:1002900079F7C501DF91CF911F910F91FF90EF90FA
:1002A000DF90CF90BF90AF900895FC01538D448DA7
:1002B000252F30E0842F90E0821B930B541710F011
:1002C000CF96089501970895FC01918D828D98171E
:1002D00061F0A28DAE0FBF2FB11D5D968C91928DF6
:1002E0009F5F9F73928F90E008958FEF9FEF089527
:1002F000FC01918D828D981731F0828DE80FF11DF0
:10030000858D90E008958FEF9FEF0895FC01918D0A
:10031000228D892F90E0805C9F4F821B91098F7303
:100320009927089582EE96E00E94860121E0892BAC
:1003300009F420E0822F089580E090E0892B29F0D5
:100340000E94920181110C9400000895FC01A48D7B
:10035000A80FB92FB11DA35ABF4F2C91848D90E0E7
:1003600001968F739927848FA689B7892C93A089CA
:10037000B1898C91837080648C93938D848D981354
:1003800006C00288F389E02D80818F7D80830895E7
:10039000EF92FF920F931F93CF93DF93EC0181E0D5
:1003A000888F9B8D8C8D98131AC0E889F98980817C
:1003B00085FF15C09FB7F894EE89FF896083E889AF
:1003C000F98980818370806480839FBF81E090E0A1
:1003D000DF91CF911F910F91FF90EF900895F62E2E
:1003E0000B8D10E00F5F1F4F0F731127E02E8C8DC8
:1003F0008E110CC00FB607FCFACFE889F98980810D
:1004000085FFF5CFCE010E94A601F1CFEB8DEC0F59
:10041000FD2FF11DE35AFF4FF0829FB7F8940B8F29
:10042000EA89FB8980818062CFCFCF93DF93EC0193
:10043000888D8823B9F0AA89BB89E889F9898C91CC
:1004400085FD03C0808186FD0DC00FB607FCF7CF88
:100450008C9185FFF2CF808185FFEDCFCE010E9488
:10046000A601E9CFDF91CF910895833081F028F480
:10047000813099F08230A9F008958730A9F0883052
:10048000C9F08430B1F4809180008F7D03C08091E9
:1004900080008F7780938000089584B58F7784BD26
:1004A000089584B58F7DFBCF8091B0008F778093C6
:1004B000B00008958091B0008F7DF9CF1F93CF9346
:1004C000DF93282F30E0F901E255FF4F8491F901C5
:1004D000E656FF4FD491F901EA57FF4FC491CC2360
:1004E000A9F0162F81110E943502EC2FF0E0EE0FDB
:1004F000FF1FE859FF4FA591B4918FB7F894EC9185
:10050000111108C0D095DE23DC938FBFDF91CF910E
:100510001F910895DE2BF8CFCF93DF9390E0FC017D
:10052000E656FF4F24918A579F4FFC018491882300
:10053000D1F090E0880F991FFC01EE58FF4FA59174
:10054000B491FC01E859FF4FC591D49161110EC0DF
:100550009FB7F8948C91E22FE0958E238C9328819D
:10056000E223E8839FBFDF91CF9108958FB7F8947E
:10057000EC91E22BEC938FBFF6CF3FB7F8948091CC
:10058000D2019091D301A091D401B091D50126B5AB
:10059000A89B05C02F3F19F00196A11DB11D3FBFBB
:1005A000BA2FA92F982F8827BC01CD01620F711D8A
:1005B000811D911D42E0660F771F881F991F4A9584
:1005C000D1F708958F929F92AF92BF92CF92DF9210
:1005D000EF92FF924B015C010E94BD026B017C0116
:1005E0000E94BD026C197D098E099F09683E734007
:1005F00081059105A8F321E0821A9108A108B108AC
:1006000088EEC80E83E0D81EE11CF11C8114910411
:10061000A104B10429F7FF90EF90DF90CF90BF9035
:10062000AF909F908F9008952FB7F8946091CE016E
:100630007091CF018091D0019091D1012FBF089589
:100640009FEF9093DB032FE32093DC032FEC2093A9
:10065000DD0323EF2093DE032CEF2093DF03909341
:10066000E00393EC9093E10390E89093E20380938E
:10067000E3039093E4039093E5036093E603909380
:10068000E7039093E803E2EEF3E080E093E0E93ED5
:10069000F90719F091918927F9CF2EE030E03093D6
:1006A000D8012093D701982F9A6A9093E9038695F1
:1006B0008A6A8093EA0388EC8093EB031092EC0340
:1006C00008958FB7F8948091CC018FBF089561E0B1
:1006D000809183070E945E028091E1068111109251
:1006E000E10608958EBD00000DB407FEFDCF8EB566
:1006F00008958FEF0C9472030F931F93CF93DF93A2
:10070000EC010E9414038B010E9479038F3F69F072
:100710000E941403601B710B6C177D07A8F380E027
:10072000DF91CF911F910F91089581E0F9CF8CBD9A
:100730009DBD08958091E106811109C081E08093FB
:10074000E10680918B0790918C070E94970360E0EF
:10075000809183070C945E02CF92DF92EF92FF921A
:100760001F93CF93DF93182F6A017B018091850738
:100770008823A9F080918607909187079C012F5FBD
:100780003F4F30938707209386078230924018F4BA
:100790000E947903EFCF0E946703109285070E94A1
:1007A0009A038CE291E00E947C03812F80640E9476
:1007B0007203C8E1D0E0D701C6010C2E04C0B69583
:1007C000A795979587950A94D2F70E947203289768
:1007D000C83F8FEFD80779F785E9112321F087E823
:1007E000183009F08FEF0E947203C0E00E94790375
:1007F0008093890787FF04C0CF3F11F0CF5FF6CF0A
:10080000DF91CF911F91FF90EF90DF90CF900895EF
:100810008F929F92AF92BF920F931F93CF93DF93CC
:10082000CDB7DEB7A1970FB6F894DEBF0FBECDBF30
:1008300019A2423008F44AE08E010F5D1F4F842E4A
:10084000912CB12CA12CA50194010E946B10E62FD4
:10085000B901CA01EA3044F5E05DD801EE938D019B
:10086000232B242B252B79F790E080E0109769F05B
:10087000FD0101900020E9F73197AF014A1B5B0BA6
:10088000BD0182EE96E00E942801A1960FB6F89471
:10089000DEBF0FBECDBFDF91CF911F910F91BF90F3
:1008A000AF909F908F900895E95CD7CFFC010190A5
:1008B0000020E9F73197AF01481B590BBC0182EECC
:1008C00096E00C942801CF92DF92EF92FF92CF93A3
:1008D000DF936C01990FEE08FF08F7FE19C06DE277
:1008E00082EE96E00E94C801EC0166277727CB01D3
:1008F0006C197D098E099F094AE00E9408048C0F3B
:100900009D1FDF91CF91FF90EF90DF90CF900895E2
:100910004AE0C701B601DF91CF91FF90EF90DF90E1
:10092000CF900C9408041F920F920FB60F921124CF
:100930002F933F934F935F936F937F938F939F93E7
:10094000AF93BF93EF93FF9382EE96E00E94A601D0
:10095000FF91EF91BF91AF919F918F917F916F9197
:100960005F914F913F912F910F900FBE0F901F906D
:1009700018951F920F920FB60F9211242F938F93F9
:100980009F93EF93FF93E091F206F091F30680813D
:10099000E091F806F091F90682FD1BC090818091EC
:1009A000FB068F5F8F732091FC06821741F0E09168
:1009B000FB06F0E0EE51F94F958F8093FB06FF9117
:1009C000EF919F918F912F910F900FBE0F901F90DD
:1009D00018958081F4CF1F920F920FB60F921124B9
:1009E0002F933F938F939F93AF93BF938091CE01AB
:1009F0009091CF01A091D001B091D1013091CD0162
:100A000023E0230F2D3758F50196A11DB11D20932A
:100A1000CD018093CE019093CF01A093D001B093EC
:100A2000D1018091D2019091D301A091D401B091D4
:100A3000D5010196A11DB11D8093D2019093D301E0
:100A4000A093D401B093D501BF91AF919F918F91A5
:100A50003F912F910F900FBE0F901F90189526E891
:100A6000230F0296A11DB11DD2CFE2EEF6E0138254
:100A7000128288EE93E0A0E0B0E084839583A683A1
:100A8000B78384E091E09183808385EC90E0958743
:100A9000848784EC90E09787868780EC90E0918B48
:100AA000808B81EC90E0938B828B82EC90E0958B35
:100AB000848B86EC90E0978B868B118E128E138E32
:100AC000148EEFE7F7E01582168211861386EBE8A5
:100AD000F7E080E5808311820895CF93DF93CDB74F
:100AE000DEB72B970FB6F894DEBF0FBECDBF78945C
:100AF00084B5826084BD84B5816084BD85B5826023
:100B000085BD85B5816085BD80916E0081608093D3
:100B10006E0010928100809181008260809381003C
:100B2000809181008160809381008091800081604C
:100B3000809380008091B10084608093B1008091A7
:100B4000B00081608093B00080917A0084608093CF
:100B50007A0080917A00826080937A0080917A0096
:100B6000816080937A0080917A00806880937A0017
:100B70001092C1008FEF88B987B915B880EC8BB996
:100B80001AB880E880BFE091F206F091F30682E0A7
:100B90008083E091EE06F091EF061082E091F0067E
:100BA000F091F1068FEC80831092FA06E091F60640
:100BB000F091F70686E08083E091F406F091F50667
:100BC000808180618083E091F406F091F506808158
:100BD00088608083E091F406F091F506808180685A
:100BE0008083E091F406F091F50680818F7D80830B
:100BF00082E191E00E94560490E080E00E940A1099
:100C000090E09093DA038093D9038F3F910521F40C
:100C10001092DA031092D9038091D9039091DA03EC
:100C200064E070E00E9457109093DA038093D90338
:100C300088E291E00E9456048091D9039091DA03F2
:100C40000E94630460E081E10E948C028BE391E0EA
:100C50000E94560410928A07109288071092850706
:100C6000109284078AE0809383070E9414038B010B
:100C700061E0809183070E948C0261E0809183078C
:100C80000E945E02FFB6F8948091D601811127C0C0
:100C9000E0E9F0E08491E4EAF0E09491E82FF0E0FC
:100CA000EE0FFF1FEE58FF4FA591B491EC91E92391
:100CB00021F461E08AE00E945E0261E08AE00E9425
:100CC0008C028CB580618CBD8CB580648CBD61E07C
:100CD0008DE00E948C0261E08BE00E948C0280918A
:100CE000D6018F5F8093D601FFBE82E580938B078C
:100CF00010928C0780918B0790918C070E9497032C
:100D00004AE0F42E8FEF0E947203FA94F110FACFAA
:100D10000E949A0340E050E0BA0180E00E94AC03D8
:100D2000F82E8093890721E0821709F441C00E94C0
:100D30001403601B710B613D774060F381E0809389
:100D400084070E94670387E491E00E945604789428
:100D500082E591E00E94560461E082E10E948C02EB
:100D600005E010E061E082E10E945E026CED75E05A
:100D700080E090E00E94E20260E082E10E945E0278
:100D800064E670E080E090E00E94E20261E082E1CF
:100D90000E945E026CED75E080E090E00E94E2024D
:100DA00061E082E10E945E0201501109D9F677C02C
:100DB0004AEA51E060E070E088E00E94AC0382FF04
:100DC00026C0F0928A0780918A07C12CD12CE12C91
:100DD00020E4F22E823019F0C12CD12C760140E0B3
:100DE00050E0BA0187E30E94AC03B701A60189E293
:100DF0000E94AC03809389078823D1F00E941403DA
:100E0000601B710B613D774050F388E098CF34E070
:100E1000F32E0E94790380938907FA94F110F9CF99
:100E20008A3A11F082E08BCF82E080938A07CBCFA1
:100E300080918A078230C1F440E050E0BA018AE331
:100E40000E94AC03882311F086E079CF0E947903D9
:100E5000807C803C19F483E080938A070E947903A8
:100E60000E9479030E9479030E94670380E58093C2
:100E70008B0710928C0761E082E10E945E0268E8B5
:100E800073E180E090E00E94E20260E082E10E9473
:100E90005E0268EE73E080E090E00E94E2021AB821
:100EA0005E98789422242394312CCE01059698875D
:100EB0008F830BEA10E0B7E9EB2EB0E0FB2E8FED4D
:100EC000B82EEFEBF0E08491F801C490F701D490D4
:100ED000DD2009F44BC081110E943502ED2DF0E0B8
:100EE000EE0FFF1FE458FF4FA591B4918C91C822DB
:100EF000E9F18BE591E00E9456048091D90390912D
:100F0000DA030E9463048091D9039091DA03019679
:100F10009093DA038093D90388E691E00E94560407
:100F20008091D9039091DA030E9463048091D903E0
:100F30009091DA0364E070E00E9457108093D90327
:100F40009093DA03682F90E080E00E94121061E035
:100F500082E10E945E0288E291E00E945604809144
:100F6000D9039091DA030E946304FFCFB7B889B127
:100F700090E095958795959587958F708C3028F59D
:100F80008A3038F5853009F09CCF85E791E00E94E2
:100F9000560489B190E095958795959587958F70C2
:100FA00099270597B1F31092DB061092DC06109298
:100FB000DD061092DE0624E030E03093E006209358
:100FC000DF0622242394312C74CF8E50823008F017
:100FD00078CFF8948FEF87B98BED93E00E9497005C
:100FE000882311F0789465CF78948091E90385384F
:100FF00009F4CAC09091E103EBEDF6E04FED56E045
:1010000030E020E04E175F0731F061916917D1F3AE
:101010002F5F3F4FF7CF44E050E05093E0064093FE
:10102000DF062430310509F0AFC08FED87B9459850
:101030003599FECF4BEDE42E43E0F42EF701CF01BE
:101040008B5D93405C0181918111F9CF85E291E044
:101050000E94560410E000E03FE7632E31E0732E5B
:101060000A151B050CF072C01F930F937F926F92AD
:10107000A1E0B0E0AC0FBD1FBF93AF930E94A710DB
:10108000CE0101960E9456040F900F900F900F9082
:101090000F900F90D12CC12CC8018C0D9D1D8A156D
:1010A0009B05A4F186E891E00E9456045FEFC51A03
:1010B000D50A80E1C816D10479F780E991E00E9451
:1010C00056044701D12CC12CD4016D914D0180EE05
:1010D000860F8136B0F5C601800F911F8A159B05DA
:1010E00084F582EE96E00E94C801BFEFCB1ADB0ABE
:1010F000E0E1CE16D10441F785E291E00E9456046A
:10110000005F1F4FF0E1EF0EF11CAACFF701EC0DCD
:10111000FD1D80811F928F93EAE8F1E0FF93EF932A
:1011200038853F934F814F930E94A710CE010596BB
:101130000E9456040F900F900F900F900F900F90F9
:10114000B5CF8CE991E00E945604CFCF8091E9039E
:10115000823879F050F4803808F4ABCE359BFECF5E
:101160003599FECF359BFECFA4CE833809F0A1CEB2
:10117000F5CF359BFECF3599FECF359BFECF359908
:10118000FECF359BFECF95CE459899B1692F6470FF
:1011900092FDFBCF823809F4D7C208F099C080389D
:1011A00009F4E1C0813809F084CE0091E103809018
:1011B000EB038091EF039091EE031092E006109202
:1011C000DF06912C240133E0440C551C3A95E1F7DD
:1011D00030E8432255249F77492A712C612C44E042
:1011E000880C991C4A95E1F740E8842299248F776E
:1011F000882A982C8824B12CA12C10E88091DF0635
:101200009091E006843091050CF053CEFC01E5523C
:10121000F94F208102138EC22091D9033091DA0355
:10122000820F931F64E070E00E945710092E000C9B
:10123000AA0BBB0BDC0199278827840D951DA61DE1
:10124000B71D75016401C80ED91EEA1EFB1E61E0C0
:1012500082E10E945E02809185078823A1F080913F
:101260007F0790918007A0918107B0918207C816EF
:10127000D906EA06FB0639F4809186079091870724
:10128000892B09F473C1C0927F07D0928007E09246
:101290008107F092820780918A07833039F089E0D4
:1012A000CC0CDD1CEE1CFF1C8A95D1F7B701A60102
:1012B00081E10E94AC03882309F437C183E0809365
:1012C00084070E94670382E991E00E94560485C169
:1012D000833809F4C5C3853809F0EBCD8091E1036B
:1012E000F4E02F1631040CF0E6C3F101E652F94F99
:1012F00080832FEF221A320A60E80E942003F894BC
:1013000080E48AB98BED93E00E94EC001AB87894DF
:1013100045E02416310409F0CCCD1092E00610927D
:10132000DF068091DF069091E00604970CF0C1CDB6
:1013300082EC91E00E945604E091DF06F091E00615
:10134000E552F94F608170E090E080E040E10E945A
:1013500008048091DF069091E00601969093E006E4
:101360008093DF06DECF61E082E10E945E02F090B2
:10137000E1031092E0061092DF060FEF6FE3D62E26
:101380007FECC72EE3EF7E2EFCEF6F2EA3EC5A2EE0
:1013900010E8B1E8EB2E84E8482E99EEA92E93E0F0
:1013A000B92E2EE0822E912C8091DF069091E006DE
:1013B000843091050CF07DCD8552994FDC018C91E4
:1013C000F81281C08091EB03880F880F880F807816
:1013D0009091EC039F77892B0093DB03D092DC0381
:1013E000C092DD037092DE036092DF030093E0039E
:1013F0005092E1031093E203F092E303E092E403DE
:101400001093E5031093E6034092E703833009F05D
:1014100064C083E88093E80380EF8093E90388EF5A
:101420008093EA030093EB030093EC031093ED0326
:101430008DE88093EE038DE68093EF031093F10324
:1014400084E78093F2031093F90380E28093FA0318
:101450001093010482E88093020410930304E09245
:10146000040480E980930504E2EEF3E088EFAE1611
:10147000BF0619F091918927FACF9092D8018092F6
:10148000D701982F9A6A9093060486958A6A80936A
:10149000070488EC8093080410920904F894B0E4DF
:1014A000BAB98BED93E00E94EC001AB87894E2ECA4
:1014B000F0E0FF93EF930E94670D60E082E10E94ED
:1014C0005E020F900F908091DF069091E0060196EA
:1014D0009093E0068093DF0667CF1093E80380EFD8
:1014E0008093E90388EF8093EA030093EB03009372
:1014F000EC031093ED03E2EEF3E0AE16BF0619F035
:1015000091918927FACF9092D8018092D701982F94
:101510009A6A9093EE0386958A6A8093EF0388EC2B
:101520008093F0031092F103B9CF0E9414036B0172
:101530000E947903809389078F3F69F40E94140306
:101540006C197D096D32714098F38FE080938407A8
:101550000E946703B6CE8E3F11F08DE0F7CF109258
:1015600087071092860781E080938507B9EDCB2E1F
:10157000B1E0DB2E0E947903D6018D936D01E9ED78
:10158000F3E0EA17FB07B1F7809186079091870790
:101590009E5F909387078093860720918807222378
:1015A00019F081159240C8F0809185078823A9F031
:1015B00080918607909187079C012F5F3F4F309362
:1015C0008707209386078230924018F40E9479039F
:1015D000EFCF0E946703109285073FEF3093DB0344
:1015E0004FE34093DC035FEC5093DD0383EF809384
:1015F000DE039CEF9093DF033093E003A3ECA09312
:10160000E1031093E2030093E30382E88093E40391
:101610001093E5031093E60381E88093E70389ECD8
:101620008093E8039091D901892F86958074806812
:101630008093E90390689093EA03A9EDCA2EA1E094
:10164000DA2EA601EBEDF3E0E12C21E030E0CA0157
:10165000820F931FDC018C9190E0022E02C09595C1
:1016600087950A94E2F760E870E0022E02C0759553
:1016700067950A94E2F78623E82A2F5F3F4F2830C8
:10168000310529F78E2D8068808B9F012F5E3F4F9B
:1016900081E090E0BA01680F791FDB016C9160680E
:1016A000D9016D939D0101968830910599F738967F
:1016B000495F5F4F28ED33E02417350729F680E0B6
:1016C00049ED53E04C155D0529F0D6019D916D0162
:1016D0008927F6CFE2EEF3E029EE33E02E173F073D
:1016E00019F091918927F8CF4EE050E05093D8013E
:1016F0004093D701982F9A6A9093330686958A6A09
:101700008093340688EC8093350610923606F89460
:1017100080E48AB98BED93E00E94EC001AB87894CB
:10172000813021F48EE991E00E94560460E082E16C
:101730000E945E028091DF069091E00601969093F0
:10174000E0068093DF065ACD6090E1031092E00638
:101750001092DF0677247A94F9ED4F2EF3E05F2E96
:101760008091DF069091E006843091050CF0A1CBCA
:101770008552994FDC018C91681264C18091EB0312
:1017800090E02091EE032F776C0163E0CC0CDD1C20
:101790006A95E1F7B0E8CB22DD24C22A4601B12CDC
:1017A000A12C2091EF032F776C0174E0CC0CDD1C91
:1017B0007A95E1F7E0E8CE22DD24C22ADC2CCC24A5
:1017C000F12CE12CF89477B88BED93E00E94970010
:1017D0008111FACF7894459889B1F82FF470F98780
:1017E00082FDFACF8091DF069091E0062091D90327
:1017F0003091DA03820F931F64E070E00E9457106B
:10180000092E000CAA0BBB0BDC0199278827880D39
:10181000991DAA1DBB1DC80ED91EEA1EFB1E809174
:10182000E803880F80789091E9039F77892B809354
:10183000D90159ED852E51E0952EA401EBEDF3E091
:10184000678570E09F01205F3F4F3B872A8790E0CC
:1018500080E00196AA85BB85BD90BB87AA878A01D7
:10186000080F191F9B01082E01C0220F0A94EAF7E6
:1018700020783B2D3F77232BD8012C93873091057F
:1018800041F73896495F5F4F28ED33E0241735075D
:10189000B9F609ED11E090E04016510629F0D801A3
:1018A0008D918D019827F8CFE1EEF3E0B3E0E83EAB
:1018B000FB0719F081919827F9CFEDE0F0E0F09364
:1018C000D801E093D70180913306880F8A7A20915E
:1018D00032062575822B98131EC080E0B82E811128
:1018E00063C061E082E10E945E0280918A07B701D5
:1018F000A601833039F039E0440F551F661F771F6A
:101900003A95D1F788E10E94AC03882331F084E056
:10191000809384071FC086E0E1CF8EEF0E947203A0
:10192000D4018D914D010E94720380169106C1F77A
:101930008FEF0E9472038FEF0E9472030E9479035F
:10194000809389078F718530B9F081E18093840796
:101950000E9467030E9467038AEA91E00E9456048E
:1019600087EB91E00E9456044AE0C701B6010E944D
:10197000080426E0B22E18C088E592E00E947C039D
:10198000811102C085E1C4CF40E050E0BA018DE092
:101990000E94AC03882311F084E1BACF0E9479033E
:1019A0008111FACF0E9467037092DB03BFE3B0930B
:1019B000DC03EFECE093DD03F3EFF093DE032CEFB9
:1019C0002093DF037092E00333EC3093E10340E8AF
:1019D0004093E2036092E30381E88093E403409341
:1019E000E5038B2D80688093E6034093E7034093E3
:1019F000E803E2EEF3E089EE93E08E179F0729F00B
:101A00008191998598279987F6CFAEE0B0E0B093A1
:101A1000D801A093D70189858A6A8093E9038985D3
:101A200086958A6A8093EA0388EC8093EB03109290
:101A3000EC03F89480E48AB98BED93E00E94EC000B
:101A40001AB8789460E082E10E945E028091DF061D
:101A50009091E00601969093E0068093DF0680CE99
:101A60001091E1031092E0061092DF0600E48091ED
:101A7000DF069091E006843091050CF01ACA855279
:101A8000994FFC01808118130CC060E8812F0E94DF
:101A90002003F8940AB98BED93E00E94EC0078944F
:101AA0001AB88091DF069091E00601969093E006C7
:101AB0008093DF06DCCF34E02316310409F01DCC1F
:101AC0008093DE066FEF95E0292E312C16CCB0E026
:101AD000A0E0EDE6FDE00C942E10AE01495F5F4FF3
:101AE000DA016D917D91AD010DE817E0F801828179
:101AF0009381DC0113962C911397286013962C93F5
:101B00000E948C0DD8011296ED91FC912381277FC4
:101B10002383E4E00C944A10ABE0B0E0E2E9FDE09E
:101B20000C9420107C013B018A01FC011782168273
:101B3000838181FFC8C1CE0101965C01F7019381C9
:101B4000F30193FD859193FF81913F01882309F46F
:101B500053C1853239F493FD859193FF81913F0103
:101B6000853229F4B70190E00E947C0FE7CF912CD9
:101B7000212C312CFFE1F31538F08B3211F190F468
:101B8000803209F1833229F137FC3CC020ED280F67
:101B90002A3050F536FE20C08AE0989E200D112490
:101BA000922E06C08D3291F0803371F7689430F830
:101BB000F30193FD859193FF81913F018111DACF6C
:101BC00021C0689431F8689432F8F2CF689433F801
:101BD000EFCF689434F8ECCFEAE02E9E200D11246C
:101BE000222E689435F8E4CF8E3229F436FC04C1F5
:101BF000689436F8DDCF8C3619F4689437F8D8CF6E
:101C00008836B1F2982F9F7D95549330E0F083365B
:101C1000A1F18337C1F1833509F063C02801F2E0F7
:101C20004F0E511CF801C080D180692D70E036FC48
:101C300002C06FEF7FEFC6010E94660F4C016894EF
:101C400037F882010AC00C5F1F4FFFE3F983882435
:101C50008394912C6501E89437F833FE2DC0522C03
:101C60008114910471F5552009F468CFB70180E221
:101C700090E00E947C0F5A94F6CFF801808189830E
:101C80000E5F1F4FE4CF2801F2E04F0E511CF80108
:101C9000C080D180692D70E036FC02C06FEF7FEF0D
:101CA000C6010E94710F4C018201D5CFB70180E2BD
:101CB00090E00E947C0F2A942814190409F0B0F7D0
:101CC000CECFF60137FC859137FE81916F01B701C8
:101CD00090E00E947C0F51105A94F1E08F1A910805
:101CE000BFCF843619F0893609F077C0F80137FE86
:101CF0006BC060817181828193810C5F1F4FF32DD6
:101D0000FF763F2E97FF09C090958095709561955D
:101D10007F4F8F4F9F4F689437F82AE030E0A5013E
:101D20000E94AC0FC82ECA188C2C432C36FE0CC057
:101D3000E89440F8C91440F434FE05C032FC03C0F6
:101D4000F32DFE7E4F2E892C44FE95C0FE01EC0D36
:101D5000F11D8081803309F087C0242D297E422E19
:101D6000842D8870582E43FC95C040FE8FC09C2C5B
:101D7000821418F42C0C922C981844FE91C0B701D0
:101D800080E390E00E947C0F42FE09C088E790E06B
:101D900041FE02C088E590E0B7010E947C0FC914A3
:101DA00008F48AC0CA94D12C9FEFC91AD90ACA0C68
:101DB000DB1CF60182916F01B70190E00E947C0F5D
:101DC000AC14BD04B1F74FCF60817181072E000CB8
:101DD000880B990B0E5F1F4F92CFD32CE894D4F849
:101DE0002AE030E0853739F1232D297FD22E8F3636
:101DF00001F148F48835A9F0F701868197812B9687
:101E0000E2E10C943C10803749F08837A9F7D4FE02
:101E100002C06894D2F820E130E00DC06894D4F894
:101E2000F6CF34FE03C0822F8660D82E20E132E048
:101E300002C028E030E0F801D7FE0FC06081718158
:101E4000828193810C5F1F4FA5010E94AC0FC82EA9
:101E5000CA183D2CE89437F867CF6081718190E013
:101E600080E00E5F1F4FF0CF42FC02C0839478CF1A
:101E70008394839475CF842D867809F471CFF6CF3F
:101E8000B70180E290E00E947C0F83948214C0F33B
:101E9000512C73CF522C5818821408F46ECFF8CFFF
:101EA000842D867809F47BCF8BE241FE80E247FCEB
:101EB0008DE2B70190E071CFB70180E390E00E941E
:101EC0007C0F9A946CCF8FEF9FEF99CFFC01059018
:101ED000615070400110D8F7809590958E0F9F1F2C
:101EE0000895FC016150704001900110D8F7809571
:101EF00090958E0F9F1F08950F931F93CF93DF939D
:101F0000182F092FEB018B8181FD09C01FEF0FEF07
:101F1000812F902FDF91CF911F910F91089582FF14
:101F200014C02E813F818C819D81281739073CF494
:101F3000E881F981CF0101969983888310838E818E
:101F40009F8101969F838E83E3CFE885F985812F5A
:101F50000995892BA1F3DACFFA01AA27283051F18C
:101F6000203181F1E8946F936E7F6E5F7F4F8F4FCA
:101F70009F4FAF4FB1E03ED0B4E03CD0670F781F29
:101F8000891F9A1FA11D680F791F8A1F911DA11D0E
:101F90006A0F711D811D911DA11D20D009F4689447
:101FA0003F912AE0269F11243019305D3193DEF6EF
:101FB000CF010895462F4770405D4193B3E00FD0A5
:101FC000C9F7F6CF462F4F70405D4A3318F0495D90
:101FD00031FD4052419302D0A9F7EACFB4E0A69573
:101FE0009795879577956795BA95C9F70097610595
:101FF000710508959B01AC010A2E069457954795EB
:1020000037952795BA95C9F7620F731F841F951FDF
:10201000A01D0895F999FECF92BD81BDF89A992728
:1020200080B50895262FF999FECF1FBA92BD81BDC4
:1020300020BD0FB6F894FA9AF99A0FBE019608954A
:102040002F923F924F925F926F927F928F929F92C8
:10205000AF92BF92CF92DF92EF92FF920F931F93B6
:10206000CF93DF93CDB7DEB7CA1BDB0B0FB6F89467
:10207000DEBF0FBECDBF09942A88398848885F84A7
:102080006E847D848C849B84AA84B984C884DF8018
:10209000EE80FD800C811B81AA81B981CE0FD11DFC
:1020A0000FB6F894DEBF0FBECDBFED01089597FBCC
:1020B000072E16F4009407D077FD09D00E948D10EA
:1020C00007FC05D03EF4909581959F4F089570953B
:1020D00061957F4F0895A1E21A2EAA1BBB1BFD013B
:1020E0000DC0AA1FBB1FEE1FFF1FA217B307E407F7
:1020F000F50720F0A21BB30BE40BF50B661F771F4F
:10210000881F991F1A9469F760957095809590952E
:102110009B01AC01BD01CF010895AA1BBB1B51E17E
:1021200007C0AA1FBB1FA617B70710F0A61BB70B47
:10213000881F991F5A95A9F780959095BC01CD01EC
:102140000895EE0FFF1F0590F491E02D0994AEE085
:10215000B0E0EDEAF0E10C942E100D891E8986E0C6
:102160008C831A8309838FEF9FE79E838D83AE0153
:10217000475E5F4F6F89788DCE0101960E948C0D6E
:102180002F813885020F131FF80110822E96E4E08C
:082190000C944A10F894FFCFF3
:1021980000000000C80128015501150286016401EC
:1021A80078010D0A536D617274706F727453442014
:1021B80076312E31330D0A000D0A426F6F7420708C
:1021C8006172746974696F6E3A20000D0A43617216
:1021D8006420696E6974004572726F72206361725F
:1021E80064000D0A4572726F7221000D0A426F6F0A
:1021F8007420756E6F3A20000D0A426F6F74206468
:1022080075653A20000D0A52657365740D0A00253C
:102218003034583A20002020200025303258200041
:102228002D000D0A52656164204572722E000D0A58
:1022380053656E74206572722E000D0A57726974A8
:1022480065204572722E0020426C6F636B206E2EE3
:0C2258003A000D0A44726976653A2000D5
:107E0000112484B714BE81FFF0D085E080938100F7
:107E100082E08093C00088E18093C10086E0809377
:107E2000C20080E18093C4008EE0C9D0259A86E02C
:107E300020E33CEF91E0309385002093840096BBD3
:107E4000B09BFECF1D9AA8958150A9F7CC24DD24C4
:107E500088248394B5E0AB2EA1E19A2EF3E0BF2EE7
:107E6000A2D0813461F49FD0082FAFD0023811F036
:107E7000013811F484E001C083E08DD089C08234E0
:107E800011F484E103C0853419F485E0A6D080C0E4
:107E9000853579F488D0E82EFF2485D0082F10E0AE
:107EA000102F00270E291F29000F111F8ED06801E7
:107EB0006FC0863521F484E090D080E0DECF843638
:107EC00009F040C070D06FD0082F6DD080E0C81688
:107ED00080E7D80618F4F601B7BEE895C0E0D1E017
:107EE00062D089930C17E1F7F0E0CF16F0E7DF06D8
:107EF00018F0F601B7BEE89568D007B600FCFDCFD4
:107F0000A601A0E0B1E02C9130E011968C91119780
:107F100090E0982F8827822B932B1296FA010C0160
:107F200087BEE89511244E5F5F4FF1E0A038BF0790
:107F300051F7F601A7BEE89507B600FCFDCF97BE46
:107F4000E89526C08437B1F42ED02DD0F82E2BD052
:107F50003CD0F601EF2C8F010F5F1F4F84911BD097
:107F6000EA94F801C1F70894C11CD11CFA94CF0C13
:107F7000D11C0EC0853739F428D08EE10CD085E9AC
:107F80000AD08FE07ACF813511F488E018D01DD067
:107F900080E101D065CF982F8091C00085FFFCCF94
:107FA0009093C60008958091C00087FFFCCF809118
:107FB000C00084FD01C0A8958091C6000895E0E648
:107FC000F0E098E1908380830895EDDF803219F02E
:107FD00088E0F5DFFFCF84E1DECF1F93182FE3DFCA
:107FE0001150E9F7F2DF1F91089580E0E8DFEE27F6
:047FF000FF270994CA
:027FFE00040479
:0400000300007E007B
:00000001FF
